:040000005FEF00F0BE
:10000800F2A406D0F294FB0ED76E1E0ED66E82783E
:020018001100D5
:10001A00040E0C6E3A0E0D6E0D2EFED70C2EFCD76A
:04002A0000001200C0
:10002E000900F5CFE6FF0006FBE10106F9E112003B
:10003E001C6A18C001F0010E006E015004E000367B
:10004E000090FF0FFBD700C01BF016C0E9FF17C0D2
:10005E00EAFF0050EE14016E0152010ED8A4000EFC
:10006E00006E1A50001A18E01950000804E2CEDF94
:10007E00CDDF1906F9D716C0E9FF17C0EAFF1B50EE
:10008E00EE14016E0152010ED8A4000E006E1A502D
:0E009E00001A02E0FF0E1C6E1CC000F01200E3
:1000AC00880ED56EFB0ED76E1E0ED66EF28EF29AA1
:0200BC00120030
:1000BE007E6A7F6A6D9E6B9E9388946A826A1590A3
:1000CE00EEDF0D0E0C6EFB0E0D6E0D2EFED70C2EF2
:1000DE00FCD700000000810E166E0F0E176E040E78
:1000EE00186E0A0E196E010E1A6EA2DF005211E082
:1000FE00F28A828A0D0E0B6EAF0E0C6EB60E0D6E60
:10010E000D2EFED70C2EFCD70B2EFAD70000F29A2E
:06011E00829AD7D7FFD73B
:020000040030CA
:0E00000000221F1EFF8881FF03C003E00340A3
:00000001FF
