:0400000017EF0BF0FB
:1000080000C01EF001C01DF002C01CF003C01BF0B0
:1000180004C01AF005C019F008C018F009C017F09C
:100028000AC016F00BC015F0E1CF27F0E2CF28F098
:10003800E9CF25F0EACF26F0F3CF23F0F4CF24F070
:10004800F5CF22F0F8CF1FF0F7CF20F0F6CF21F050
:100058000EEC0AF022C0F5FF1FC0F8FF20C0F7FF22
:1000680021C0F6FF23C0F3FF24C0F4FF1EC000F038
:100078001DC001F01CC002F01BC003F01AC004F040
:1000880019C005F018C008F017C009F016C00AF02A
:1000980015C00BF025C0E9FF26C0EAFF27C0E1FF25
:0600A80028C0E2FF110078
:1000AE001E0E0F01546F100E316E020E326E31C0E5
:1000BE00E1FF32C0E2FFE69E31C0E1FF32C0E2FF57
:1000CE00E69C040E3124E16E000E3220E26EE68CC8
:1000DE00180E2D6E020E2E6E2DC0E1FF2EC0E2FF09
:1000EE00E69E2DC0E1FF2EC0E2FFE69C040E2D24FD
:1000FE00E16E000E2E20E26EE68C020E3124E16ED1
:10010E00000E3220E26E29C0E6FF2AC0E6FF010E85
:10011E003124E16E000E3220E26E400EE66E31C0EA
:10012E00E9FF32C0EAFFEECF00F031C0E1FF32C08E
:10013E00E2FF400E0014E66E31C0E9FF32C0EAFF66
:10014E00EECF00F031C0E1FF32C0E2FF880E0010AA
:10015E00E66E31C035F032C036F0040E3118006E46
:06016E0000C031F0120098
:100174000B6A0A6A096A00500402F4CF09F0F3CF4B
:1001840008F001500502F4CF0BF0F3CF0AF0005051
:100194000502F3500926F4500A22E86A0B220150A2
:1001A4000402F3500926F4500A22E86A0B2208C01C
:1001B40000F009C001F00AC002F00BC003F0120005
:1001C4000201286B296B42D03B8E28813750010AEB
:1001D400D8B4288350D03B8E4ED03B8E24BF16D04B
:1001E40024C203F00F0E031603C000F0000E016ECC
:1001F4000036009001362F0E0024E96E000E012017
:10020400EA6EEECF04F0EECF05F015D024C203F071
:100214000F0E031603C000F0000E016E00360090AE
:1002240001362B0E0024E96E000E0120EA6EEECF9B
:1002340004F0EECF05F004C0E9FF05C0EAFFEECFFD
:1002440001F001A402D0010E286F15D020C201F0E4
:100254001F0E01160150000AB7E020C201F01F0E64
:1002640001160150010AB7E020C201F01F0E011669
:100274000150020AB2E03BAE07D0280E386E020EDF
:0A028400396E3B80020E3C6E120042
:10028E0002012251010A0FE120C201F01F0E0116D8
:10029E000150000A08E13B8E2151030A03E1010ED1
:1002AE00376E01D0376A2251000AD8A48BD020C2F3
:1002BE0001F01F0E01160150020AD8A483D024C2E9
:1002CE0001F00F0E01160150000AD8B47BD03B8E00
:1002DE0024BF16D024C203F00F0E031603C000F085
:1002EE00000E016E0036009001362F0E0024E96ECE
:1002FE00000E0120EA6EEECF04F0EECF05F015D021
:10030E0024C203F00F0E031603C000F0000E016EA0
:10031E000036009001362B0E0024E96E000E0120EF
:10032E00EA6EEECF04F0EECF05F02151030A07E19D
:10033E0004C0E1FF05C0E2FF840EE66E43D024C286
:10034E0000F00F0E0016530E026E0F0E036E0050CD
:10035E000226D8B0032A02C0E9FF03C0EAFFFE0E50
:10036E00EE14006EEECF01F0FF0E011602C0E1FF9B
:10037E0003C0E2FF00C0E6FF01C0E6FF24AF11D0CC
:10038E0004C0E1FF05C0E2FFE66A040E0418006E29
:10039E0000C004F004C0E1FF05C0E2FF400EE66EAF
:1003AE0011D004C0E1FF05C0E2FF880EE66E040E18
:1003BE000418006E00C004F004C0E1FF05C0E2FFA7
:0603CE00C80EE66E1200ED
:1003D4003B8E0F01546B4C6A22C24BF04B50000A07
:1003E40003E1100E4A6E03D0200E4A6E5EDE120048
:1003F40002012051800AD8A473D0C00E3B6E65D090
:10040400340E006E170E016E000E026E00C038F03E
:1004140001C039F002C03AF0120E3C6E000E3D6E7F
:100424005FD0030E006E000E016E22C204F0000EB7
:10043400056E9EDE470E0024E96E000E0120EA6E72
:10044400EECF38F0EECF39F0EECF3AF0020E38248A
:10045400F66E000E3920F76E000E3A20F86E090091
:10046400F5CF00F00900F5CF01F000C03CF001C069
:100474003DF036D022510001675D23E3030E006E88
:10048400000E016E22C204F0000E056E71DE3E0EF7
:100494000024E96E000E0120EA6EEECF38F0EECFB4
:1004A40039F0EECF3AF038C0F6FF39C0F7FF3AC062
:1004B400F8FF0900F5CF00F000C03CF0000E3D6EDF
:1004C40001D03B6A0DD03B6A0BD002012351010AD3
:1004D40097E02351020AA5E02351030ACBE0F3D7A6
:0204E400120004
:1004E60020C201F01F0E01160150010A01E08DD055
:1004F60002012451000A01E088D02151060A3FE199
:1005060034D04B50010A17E1C80E006E160E016E6C
:10051600000E026E120E0026000E0122022200C0FC
:1005260038F001C039F002C03AF0090E3C6E000EF8
:100536003D6EC00E3B6E23D04B50010A12E1130EE6
:10054600006E170E016E000E026E00C038F001C07C
:1005560039F002C03AF0210E3C6E000E3D6EC00E20
:100566003B6E0DD0800E3B6E0AD002012351210A4C
:10057600C8E02351220AE0E02351230AF3E020C217
:1005860001F0600E0116050E006E005004E0013207
:10059600019EFF0FFBD70150010A01E036D022D0A1
:1005A60034D033D05B0E386E000E396E010E3C6EC1
:1005B600000E3D6EC10E3B6E28D0800E3B6E23C2F0
:1005C6005BF023D0530E386E000E396E010E3C6E72
:1005D600000E3D6E810E3B6E18D0800E3B6E22C221
:1005E60053F013D002012151010ADAE02151090A20
:1005F600D8E02151020AD6E021510A0ADEE0215153
:0C060600030AE0E021510B0AE8E01200BA
:10061200000E3D5C02E1080E3C5C10E23CC003F0BF
:100622003DC004F03450000A03E1010E346E05D0DF
:100632003450010A02E1020E346E04D0080E036E39
:10064200000E046E2BC0E1FF2CC0E2FFE6922BC02D
:10065200E1FF2CC0E2FFE6902BC0E9FF2CC0EAFFCD
:10066200EECF00F02BC0E1FF2CC0E2FF04500010DF
:10067200E66E010E2B24E16E000E2C20E26E03C00A
:10068200E6FF03503C5C006E04503D58016E00C012
:100692003CF001C03DF0280E0001696F020E6A6F46
:1006A2003BB02FD0035004102BE038C0F6FF39C006
:1006B200F7FF3AC0F8FF0900F5CF00F069C0E1FF8B
:1006C2006AC0E2FF00C0E6FF694B6A2B010E3824C4
:1006D200006E000E3920016E000E3A20026E00C03C
:1006E20038F001C039F002C03AF0010E035C006E2E
:1006F200000E0458016E00C003F001C004F0D2D70E
:1007020024D00350041021E038C0E9FF39C0EAFFC9
:1007120069C0E1FF6AC0E2FFEECFE6FF694B6A2BD8
:10072200010E3824006E000E3920016E00C038F030
:1007320001C039F0010E035C006E000E0458016E18
:0C07420000C003F001C004F0DCD712007E
:10074E00010E4D24E96E000E4E20EA6EEECF00F043
:10075E0000C002F0000E0001625D02E10250615D18
:10076E0003E261C002F00AD00250615D006E000E1D
:10077E006259016E00C061F001C062F0036A02505E
:10078E00035C1CE2280EE96E020EEA6E0350E926A7
:10079E00D8B0EA2AEECF00F05EC0E1FF5FC0E2FF04
:1007AE0000C0E6FF010E5E24006E000E5F20016E9B
:1007BE0000C05EF001C05FF0032AE1D7000E006EAC
:1007CE006251005C02E16151000828E2010E5C24D6
:1007DE00E16E000E5D20E26E080EE66E020E5C24E7
:1007EE00E16E000E5D20E26E280EE66E020EE66EE3
:1007FE004DC0E9FF4EC0EAFFEECF00F000BC07D0BF
:10080E005CC0E1FF5DC0E2FFC80EE66E06D05CC0C4
:10081E00E1FF5DC0E2FF880EE66E19D0010E5C248A
:10082E00E16E000E5D20E26E080EE66E020E5C2496
:10083E00E16E000E5D20E26E200EE66E020EE66E9A
:10084E005CC0E1FF5DC0E2FF840EE66E609F1200A9
:10085E00160E616E9F0E0F015B6F3B0E606E1200E7
:10086E00C80E476E160E486E000E496E460E3E6E50
:10087E00170E3F6E000E406EF10E416E160E426E5A
:10088E00000E436E980E446E160E456E000E466EAA
:02089E00120046
:1008A00020C201F0600E0116050E006E005004E03B
:1008B0000132019EFF0FFBD70150000A01E058D022
:1008C00034D03B8E080E4A6E53D094DD51D082DD79
:1008D0004FD04B0E386E000E396E3B80010E3C6ED1
:1008E0003B8E46D06FDC44D0D2DC42D04C0E006E42
:1008F000000E016E24510026D8B0012A00C038F045
:1009000001C039F03B80010E3C6E3B8E31D03B8EF6
:100910004C0EE16E000EE26E2451E126D8B0E22AC0
:1009200022C2E6FF25D024D023D002012151050A9E
:10093000C8E02151060AC9E02151090AC8E0215145
:10094000080AC7E02151000ACDE02151010ACCE09C
:100950002151030AC9E021510A0AC8E021510B0ABA
:10096000D6E02151070ADFE021510C0ADDE0DCD797
:02097000120073
:0A0972000001685301E0B6DD120039
:10097C0064983BBE4AD0000160AF28D0020E336EA3
:10098C00010E2B24E16E000E2C20E26EE66A2BC0C9
:10099C00E1FF2CC0E2FFC80EE66E010E5C24E16E96
:1009AC00000E5D20E26E080EE66E020E5C24E16E17
:1009BC00000E5D20E26E280EE66E020EE66E5CC046
:1009CC00E1FF5DC0E2FFC80EE66E1ED0010E5C2496
:1009DC00E16E000E5D20E26E080EE66E020E5C24E7
:1009EC00E16E000E5D20E26E200EE66E020EE66EEB
:1009FC005CC0E1FF5DC0E2FF8C0EE66E2BC0E1FF38
:100A0C002CC0E2FF840EE66E7FD0000160BF7CD06C
:100A1C00020120AF52D03D50275D02E13C50265DD3
:100A2C0004E226C23CF027C23DF0EDDD010E336E30
:100A3C00010E5C24E16E000E5D20E26E080EE66E87
:100A4C00020E5C24E16E000E5D20E26E200EE66E5E
:100A5C00020EE66E5CC0E1FF5DC0E2FF800EE66E4A
:100A6C0000016B6B010E4D24E16E000E4E20E26E08
:100A7C00080EE66E020E4D24E16E000E4E20E26E64
:100A8C00200EE66E020EE66E4DC0E1FF4EC0E2FF98
:100A9C00840EE66E010E6B6F020E2B24E16E000EBF
:100AAC002C20E26E280EE66E020EE66E2BC0E1FFE5
:100ABC002CC0E2FFC80EE66E27D0020E336E010E7C
:100ACC002B24E16E000E2C20E26EE66A2BC0E1FFB7
:100ADC002CC0E2FFC80EE66E010E5C24E16E000E27
:100AEC005D20E26E080EE66E020E5C24E16E000ED6
:100AFC005D20E26E280EE66E020EE66E5CC0E1FF33
:0A0B0C005DC0E2FFC80EE66E1200A5
:100B1600336A2BC0E1FF2CC0E2FFE66A040E2B18F5
:100B2600E16E2CC0E2FF000EE21AE66A000160AF39
:060B360001D0609F1200D7
:100B3C00040E2B18006E00C02BF04A50080A0BE173
:100B4C0022C25CFF0F015C51000803E2100E4A6EDA
:100B5C0002D0040E4A6E3350010A3AE1020E2B24E5
:100B6C00E16E000E2C20E26E280EE66E020EE66E92
:100B7C004ADD3450020A07E12BC0E1FF2CC0E2FF32
:100B8C00840EE66E24D0040E2B18006E00C02BF0E1
:100B9C002BC0E9FF2CC0EAFFEECF00F000BC0CD05C
:100BAC00040E2B18006E00C02BF02BC0E1FF2CC0E4
:100BBC00E2FFC80EE66E0BD0040E2B18006E00C0C0
:100BCC002BF02BC0E1FF2CC0E2FF880EE66E01D0AB
:040BDC009CDF120088
:100BE0000F0153A119D04DC0E9FF4EC0EAFFEECF6F
:100BF00001F00150800A0FE12BC0E9FF2CC0EAFF91
:100C0000EECF01F00150840A06E14DC0E1FF4EC075
:0E0C1000E2FF8C0EE66E5391DF0E62161200AC
:100C1E003350020A02E194DD1ED076DF6B51000ADA
:100C2E0019E1010E5C24E16E000E5D20E26E080EED
:100C3E00E66E020E5C24E16E000E5D20E26E200E6A
:100C4E00E66E020EE66E5CC0E1FF5DC0E2FF8C0E4A
:080C5E00E66E01D06B6B120081
:100C66002BC0E9FF2CC0EAFFEECF00F000AE05D0A6
:100C76002BC0E1FF2CC0E2FFE66A346A336A3C6AA5
:0C0C86003D6A3B6A0ADE72DE76DE120078
:100C9200EDDD356A366A4F6A506A0F015F6B626A30
:100CA200DDDD648C5C6B546B649C596A5A6A000E7D
:100CB2005A5C02E1080E595C17E259C000F05AC0B2
:100CC20001F0003600900136003600900136000E29
:100CD2000024E16E020E0120E26EE66AE66AE66A2E
:100CE200E66A594A5A2AE3D7160E536F62A603D010
:100CF200F70E6216FBD73B6A0001606B616B626B99
:100D02006498080E2B6E020E2C6E4B6A4A6A120011
:0A0D12006084EF0E62166482120086
:040D1C00A19412008C
:100D20006492609462A403D0FB0E6216FBD712009B
:0A0D3000D08EA284A084F28E12007F
:100D3A0000017B6B7C6B7D6B020E7825F66E000ED4
:100D4A007921F76E000E7A21F86E0900F5CF05F0C9
:100D5A00030E7825F66E000E7921F76E000E7A21C1
:100D6A00F86E0900F5CF00F000C003F0000E046E23
:100D7A0003C001F0006A05500024066E000E01202F
:100D8A00076E78C008F079C009F07AC00AF0010E3F
:100D9A000824F66E000E0920F76E000E0A20F86E7F
:100DAA000900F5CF01F00150020A1BE1060E0824E2
:100DBA00F66E000E0920F76E000E0A20F86E090082
:100DCA00F5CF01F001507B5D0CE2060E0824F66EA9
:100DDA00000E0920F76E000E0A20F86E0900F5CF02
:100DEA007BF0010E0824F66E000E0920F76E000E45
:100DFA000A20F86E0900F5CF01F00150040A1BE140
:100E0A00080E0824F66E000E0920F76E000E0A205E
:100E1A00F86E0900F5CF01F001507B5D0CE2080E77
:100E2A000824F66E000E0920F76E000E0A20F86EEE
:100E3A000900F5CF7BF008C0F6FF09C0F7FF0AC02A
:100E4A00F8FF0900F5CF00F000507C25016E000E76
:100E5A007D21026E01C07CF002C07DF00750025C69
:100E6A0002E10650015C01E30FD008C0F6FF09C099
:100E7A00F7FF0AC0F8FF0900F5CF00F00050082676
:0E0E8A00000E09220A2283D77BC000F012005E
:100E9800340E006E170E016E000E026E0E0E002448
:100EA800F66E000E0120F76E000E0220F86E0900A3
:100EB800F5CF03F003C004F00F0E0024F66E000E09
:100EC8000120F76E000E0220F86E0900F5CF01F040
:100ED8000150035C12E2340E006E170E016E000E14
:100EE800026E0F0E0024F66E000E0120F76E000E43
:100EF8000220F86E0900F5CF04F0340E006E170ECC
:100F0800016E000E026E100E0024F66E000E012017
:100F1800F76E000E0220F86E0900F5CF01F00150BF
:100F2800045C12E2340E006E170E016E000E026EA3
:100F3800100E0024F66E000E0120F76E000E02203F
:0E0F4800F86E0900F5CF04F004C000F01200AE
:100F5600000E0001791902E1000E781902E1016A1A
:100F66000AD078C0E9FF79C0EAFFEECF00F0000EA4
:0C0F760000BE010E016E01C000F0120070
:100F820000017951000A12E078C000F0000E016EF3
:100F92000036009001362B0E0024E96E000E01206F
:100FA200EA6EEECF04F0EECF05F011D078C000F07B
:100FB200000E016E0036009001362F0E0024E96EFD
:100FC200000E0120EA6EEECF04F0EECF05F0020E25
:100FD2000424E16E000E0520E26E7AC0E6FF7BC0BB
:100FE200E6FF010E0424E16E000E0520E26E7CC0D5
:100FF200E6FF04C0E9FF05C0EAFFEECF00F004C03F
:10100200E1FF05C0E2FF400E0014E66E04C0E9FFF6
:1010120005C0EAFFEECF00F004C0E1FF05C0E2FF29
:10102200880E0010E66E7951000A1BE078C000F0CD
:10103200000E016E0036009001362B0E0024026E67
:10104200000E0120036E02C0E9FF03C0EAFF040E96
:10105200EE18006E02C0E1FF03C0E2FF00C0E6FF2F
:101062001AD078C000F0000E016E003600900136F2
:101072002F0E0024026E000E0120036E02C0E9FF53
:1010820003C0EAFF040EEE18006E02C0E1FF03C0C7
:10109200E2FF00C0E6FF04C000F005C001F012004C
:1010A2004A50000A0AE1646A606A2FEC04F064B6EE
:1010B20002D06486FCD7010E4A6E4A50010A08E14A
:1010C20064BA06D0626A606A60806088020E4A6E04
:1010D20062A405D060A403D0FB0E621620DE64A2D7
:1010E20002D01BDED8D062A018D060A016D0D0DD0E
:1010F200040E4A6E200E0201026F020E036F080EEA
:10110200016F000E0015006E00C000F28C0E00117F
:10111200006E00C000F2FE0E621662A805D060A842
:1011220003D0F6DDEF0E621662AC04D060AC02D0E2
:10113200BF0E621662AA03D060AA01D050DD62A27D
:1011420004D060A202D00F015F6B040E4A5C02E27F
:10115200E4DDA1D060A69ED00001796B040E795D1A
:10116200D8B098D062A692D063CF58F0F70E62162C
:10117200780E5814016E0150000AD8A486D0FD0ED4
:101182005814016E026AFF0E0216000E021802E1E6
:10119200000E01186CE17E0E5814016E01C003F0BE
:1011A2000332039E03C000F0000E016E0036009071
:1011B2000136003600900136000E0024026E020E47
:1011C2000120036E02C04DF003C04EF002C05CF07D
:1011D20003C05DF0040E5C18006E00C05CF002C03B
:1011E200E9FF03C0EAFFEECF00F000C001F03C0EC1
:1011F20001160132019E0132019E01500D0A35E1B4
:10120200020E4D24E96E000E4E20EA6EEECF01F082
:10121200EECF02F00250020A02E1280E011823E189
:101222000001020E4D24E16E000E4E20E26E200EF1
:10123200E66E020EE66E786B080E785D14E2200E02
:10124200E16E020EE26E7851E126D8B0E22A280E53
:10125200E96E020EEA6E7851E926D8B0EA2AEECF9C
:10126200E6FF782BE9D7FEDC01D0D8DC0DD0FD0EED
:101272005814016E026AFF0E0216000E021802E1F5
:10128200040E011801E159DC00D001D003D00001A5
:08129200792B64D742DD120044
:10129A00FEDD00C071F0C80E0001786F160E796F7E
:1012AA00000E7A6F45DD00C072F07151005C03E2F6
:0C12BA0071C000F002D072C000F0120001
:1012C6004A50000A0BE1646A606A2FEC04F02DDDD7
:0E12D60064B602D06486FCD7010E4A6E120088
:1012E400200E4A5C03E364B201D002D0006A46D007
:1012F4004FC078F050C079F02CDE00523EE174C04B
:1013040078F0010E796F71C07AF072C07BF073C00F
:101314007CF035DE00C04FF001C050F0546A556ACD
:10132400566A576A4FC078F050C079F012DE005206
:101334000EE0010E016E0150000A01E1B0DE5450CE
:1013440055105610571002E0006A18D0EBD74FC062
:1013540075F050C076F0000E501802E1000E4F18E0
:101364000AE0010E00017525E96E000E7621EA6E91
:0E137400EECF00F003D0006A01D0006A120034
:101382000001776B200E4A5C03E364B201D002D005
:10139200006A2DD035C078F036C079F0DBDD00521E
:1013A20025E135C075F036C076F0000E361802E140
:1013B200000E35180AE0010E7525E96E000E762141
:1013C200EA6EEECF00F000C077F074C078F0796B6F
:1013D20071C07AF072C07BF073C07CF0D1DD00C0C6
:1013E20035F001C036F077C000F001D0006A12007B
:1013F20053DF00C067F0010E686F6DC029F06EC048
:101402002AF06FC051F070C052F042DC010E016E42
:0A1412000150010A01E156DF12004B
:10141C004A50010A07E164BA05D0626A60806088AC
:10142C00020E4A6E62A405D060A403D0FB0E6216B5
:10143C0071DC64A202D06CDCDDD062A018D060A09C
:10144C0016D021DC040E4A6E200E0201026F020E31
:10145C00036F080E016F000E0015006E00C000F245
:10146C008C0E0011006E00C000F2FE0E621662A817
:10147C0005D060A803D047DCEF0E621662AC04D036
:10148C0060AC02D0BF0E621662AA04D060AA02D071
:10149C00F0EC05F062A204D060A202D00F015F6BE9
:1014AC00040E4A5C02E234DCA5D060A6A1D0000197
:1014BC007F6B040E7F5DD8B09BD062A695D063CFB6
:1014CC0058F0F70E6216780E5814016E0150000A8F
:1014DC00D8A489D0FD0E5814016E026AFF0E0216B4
:1014EC00000E021802E1000E01186EE17E0E581477
:1014FC00016E01C003F00332039E03C000F0000E26
:10150C00016E003600900136003600900136000E58
:10151C000024026E020E0120036E02C04DF003C0C7
:10152C004EF002C05CF003C05DF0040E5C18006E5F
:10153C0000C05CF002C0E9FF03C0EAFFEECF00F090
:10154C0000C001F03C0E01160132019E0132019ED9
:10155C0001500D0A36E1020E4D24E96E000E4E20AC
:10156C00EA6EEECF01F0EECF02F00250020A02E179
:10157C00280E011823E10001020E4D24E16E000E2D
:10158C004E20E26E200EE66E020EE66E7E6B080EAC
:10159C007E5D14E2200EE16E020EE26E7E51E126BB
:1015AC00D8B0E22A280EE96E020EEA6E7E51E926C8
:1015BC00D8B0EA2AEECFE6FF7E2BE9D733EC06F063
:1015CC0002D00FEC06F00ED0FD0E5814016E026A1C
:1015DC00FF0E0216000E021802E1040E011802E1C1
:1015EC009EEC05F000D001D003D000017F2B61D719
:0615FC008EEC06F0120067
:1016020029C071F02AC072F0400E0001736F010E02
:06161200746FB6DE120049
:101618006DC071F06EC072F06FC073F0010E000102
:06162800746F5CDE12008D
:10162E007E6A7F6A800E00016D6F020E6E6FC00EB5
:10163E006F6F020E706FD6DEDDDF005201E1FCD758
:10164E006C6B400E6C5D14E2C00EE16E020EE26E2B
:10165E006C51E126D8B0E22A800EE96E020EEA6ED7
:10166E006C51E926D8B0EA2AEECFE6FF6C2BE9D70B
:10167E000001C00E6D6F020E6E6F400E6F6FC5DFF4
:0A168E00005201E1F5D7D8D7FFD7CD
:101698002003550053004200200048004900440040
:1016A80020004C006900620072006100720079003D
:1016B8000000000000000000000000000000000022
:1016C80009022900010100C03209040000020300D8
:1016D80000000921010100012221000705810340C2
:0916E800000107050103400001A7
:1016F10022034D0069006B0072006F0065006C00F1
:1017010065006B00740072006F006E0069006B0071
:02171100610075
:101713000600FF0901A10119012940150026FF0058
:101723007508954081021901294075089540910279
:01173300C0F5
:1017340012010002000000083412341201000102F8
:021744000001A2
:04174600040309048B
:020000040030CA
:0E00000000321F1EFF8881FF03C003E0034093
:00000001FF
