:040000002DEF0BF0E5
:1000080000C01EF001C01DF002C01CF003C01BF0B0
:1000180004C01AF005C019F008C018F009C017F09C
:100028000AC016F00BC015F0E1CF27F0E2CF28F098
:10003800E9CF25F0EACF26F0F3CF23F0F4CF24F070
:10004800F5CF22F0F8CF1FF0F7CF20F0F6CF21F050
:10005800EBEC09F022C0F5FF1FC0F8FF20C0F7FF46
:1000680021C0F6FF23C0F3FF24C0F4FF1EC000F038
:100078001DC001F01CC002F01BC003F01AC004F040
:1000880019C005F018C008F017C009F016C00AF02A
:1000980015C00BF025C0E9FF26C0EAFF27C0E1FF25
:0600A80028C0E2FF110078
:1000AE001E0E0F01546F100E4A6E020E4B6E4AC09A
:1000BE00E1FF4BC0E2FFE69E4AC0E1FF4BC0E2FF0C
:1000CE00E69C040E4A24E16E000E4B20E26EE68C96
:1000DE00180E466E020E476E46C0E1FF47C0E2FFA5
:1000EE00E69E46C0E1FF47C0E2FFE69C040E4624B2
:1000FE00E16E000E4720E26EE68C020E4A24E16E9F
:10010E00000E4B20E26E30C0E6FF31C0E6FF010E5E
:10011E004A24E16E000E4B20E26E400EE66E4AC09F
:10012E00E9FF4BC0EAFFEECF00F04AC0E1FF4BC043
:10013E00E2FF400E0014E66E4AC0E9FF4BC0EAFF34
:10014E00EECF00F04AC0E1FF4BC0E2FF880E001078
:10015E00E66E4AC02BF04BC02CF0040E4A18006E0F
:06016E0000C04AF012007F
:100174000B6A0A6A096A00500402F4CF09F0F3CF4B
:1001840008F001500502F4CF0BF0F3CF0AF0005051
:100194000502F3500926F4500A22E86A0B220150A2
:1001A4000402F3500926F4500A22E86A0B2208C01C
:1001B40000F009C001F00AC002F00BC003F0120005
:1001C400358E0F01546B2A6A22C229F02950000A85
:1001D40003E1100E2F6E03D0200E2F6E66DF120087
:1001E4000201286B296B42D0358E28814C50010ABC
:1001F400D8B4288350D0358E4ED0358E24BF16D037
:1002040024C203F00F0E031603C000F0000E016EAB
:10021400003600900136480E0024E96E000E0120DD
:10022400EA6EEECF04F0EECF05F015D024C203F051
:100234000F0E031603C000F0000E016E003600908E
:100244000136440E0024E96E000E0120EA6EEECF62
:1002540004F0EECF05F004C0E9FF05C0EAFFEECFDD
:1002640001F001A402D0010E286F15D020C201F0C4
:100274001F0E01160150000AB7E020C201F01F0E44
:1002840001160150010AB7E020C201F01F0E011649
:100294000150020AB2E035AE07D0280E326E020ECB
:0A02A400336E3580020E366E120034
:1002AE0002012251010A0FE120C201F01F0E0116B8
:1002BE000150000A08E1358E2151030A03E1010EB7
:1002CE004C6E01D04C6A2251000AD8A48BD020C2A9
:1002DE0001F01F0E01160150020AD8A483D024C2C9
:1002EE0001F00F0E01160150000AD8B47BD0358EE6
:1002FE0024BF16D024C203F00F0E031603C000F065
:10030E00000E016E003600900136480E0024E96E94
:10031E00000E0120EA6EEECF04F0EECF05F015D000
:10032E0024C203F00F0E031603C000F0000E016E80
:10033E00003600900136440E0024E96E000E0120B6
:10034E00EA6EEECF04F0EECF05F02151030A07E17D
:10035E0004C0E1FF05C0E2FF840EE66E43D024C266
:10036E0000F00F0E0016530E026E0F0E036E0050AD
:10037E000226D8B0032A02C0E9FF03C0EAFFFE0E30
:10038E00EE14006EEECF01F0FF0E011602C0E1FF7B
:10039E0003C0E2FF00C0E6FF01C0E6FF24AF11D0AC
:1003AE0004C0E1FF05C0E2FFE66A040E0418006E09
:1003BE0000C004F004C0E1FF05C0E2FF400EE66E8F
:1003CE0011D004C0E1FF05C0E2FF880EE66E040EF8
:1003DE000418006E00C004F004C0E1FF05C0E2FF87
:0603EE00C80EE66E1200CD
:1003F40002012051800AD8A471D0C00E356E64D099
:10040400060E006E170E016E000E026E00C032F072
:1004140001C033F002C034F0120E366E000E376E97
:100424005DD0030E006E000E016E22C204F0000EB9
:10043400056E9EDE410E0024E96E000E0120EA6E78
:10044400EECF32F0EECF33F0EECF34F0020E3224A2
:10045400F66E000E3320F76E000E3420F86E09009D
:10046400F5CF00F00900F5CF01F000C036F001C06F
:1004740037F034D022514D5C23E3030E006E000E9E
:10048400016E22C204F0000E056E72DE380E0024E6
:10049400E96E000E0120EA6EEECF32F0EECF33F0BB
:1004A400EECF34F032C0F6FF33C0F7FF34C0F8FFAC
:1004B4000900F5CF00F000C036F0000E376E01D011
:1004C400356A0CD0356A0AD02351010A99E02351C8
:0E04D400020AA7E02351030ACDE0F4D712007C
:1004E20020C201F01F0E01160150010A01E08DD059
:1004F20002012451000A01E088D02151060A3FE19D
:1005020034D02950010A17E1A00E006E160E016EBA
:10051200000E026E120E0026000E0122022200C000
:1005220032F001C033F002C034F0090E366E000E14
:10053200376EC00E356E23D02950010A12E1C90E62
:10054200006E160E016E000E026E00C032F001C087
:1005520033F002C034F0210E366E000E376EC00E3C
:10056200356E0DD0800E356E0AD002012351210A5C
:10057200C8E02351220AE0E02351230AF3E020C21B
:1005820001F0600E0116050E006E005004E001320B
:10059200019EFF0FFBD70150010A01E036D022D0A5
:1005A20034D033D06A0E326E000E336E010E366EC8
:1005B200000E376EC10E356E28D0800E356E23C206
:1005C2006AF023D0690E326E000E336E010E366E63
:1005D200000E376E810E356E18D0800E356E22C237
:1005E20069F013D002012151010ADAE02151090A0E
:1005F200D8E02151020AD6E021510A0ADEE0215157
:0C060200030AE0E021510B0AE8E01200BE
:10060E00000E375C02E1080E365C10E236C003F0D5
:10061E0037C004F02E50000A03E1010E2E6E05D0F5
:10062E002E50010A02E1020E2E6E04D0080E036E49
:10063E00000E046E44C0E1FF45C0E2FFE69244C0E6
:10064E00E1FF45C0E2FFE69044C0E9FF45C0EAFF86
:10065E00EECF00F044C0E1FF45C0E2FF04500010B1
:10066E00E66E010E4424E16E000E4520E26E03C0DC
:10067E00E6FF0350365C006E04503758016E00C022
:10068E0036F001C037F0280E546E020E556E35B09E
:10069E002FD0035004102BE032C0F6FF33C0F7FF0B
:1006AE0034C0F8FF0900F5CF00F054C0E1FF55C08B
:1006BE00E2FF00C0E6FF544A552A010E3224006EB6
:1006CE00000E3320016E000E3420026E00C032F098
:1006DE0001C033F002C034F0010E035C006E000E58
:1006EE000458016E00C003F001C004F0D2D724D02C
:1006FE000350041021E032C0E9FF33C0EAFF54C0BA
:10070E00E1FF55C0E2FFEECFE6FF544A552A010E37
:10071E003224006E000E3320016E00C032F001C094
:10072E0033F0010E035C006E000E0458016E00C023
:0A073E0003F001C004F0DCD7120044
:1007480020C201F0600E0116050E006E005004E094
:100758000132019EFF0FFBD70150000A01E058D07B
:1007680034D0358E080E2F6E53D040DE51D026DDA2
:100778004FD0290E326E000E336E3580010E366E64
:10078800358E46D02BDD44D08EDD42D02A0E006E49
:10079800000E016E24510026D8B0012A00C032F0A4
:1007A80001C033F03580010E366E358E31D0358E6E
:1007B8002A0EE16E000EE26E2451E126D8B0E22A3C
:1007C80022C2E6FF25D024D023D002012151050AF8
:1007D800C8E02151060AC9E02151090AC8E021519F
:1007E800080AC7E02151000ACDE02151010ACCE0F6
:1007F8002151030AC9E021510A0AC8E021510B0A14
:10080800D6E02151070ADFE021510C0ADDE0DCD7F0
:020818001200CC
:10081A002D6A44C0E1FF45C0E2FFE66A040E4418AF
:10082A00E16E45C0E2FF000EE21AE66A000160AF1F
:06083A0001D0609F1200D6
:10084000A00E416E160E426E000E436E180E386EEC
:10085000170E396E000E3A6E760E3B6E160E3C6E1B
:10086000000E3D6EEA0E3E6E160E3F6E000E406E9E
:02087000120074
:080872005B5201E035DE1200CB
:10087A00010E00016725E96E000E6821EA6EEECFCF
:10088A0000F000C002F0000E625D02E10250615DFC
:10089A0003E261C002F00AD00250615D006E000EF0
:1008AA006259016E00C061F001C062F0036A025031
:1008BA00035C1CE2280EE96E020EEA6E0350E9267A
:1008CA00D8B0EA2AEECF00F05EC0E1FF5FC0E2FFD7
:1008DA0000C0E6FF010E5E24006E000E5F20016E6E
:1008EA0000C05EF001C05FF0032AE1D7000E006E7F
:1008FA006251005C02E16151000828E2010E5C24A9
:10090A00E16E000E5D20E26E080EE66E020E5C24B9
:10091A00E16E000E5D20E26E280EE66E020EE66EB5
:10092A0067C0E9FF68C0EAFFEECF00F000BC07D05D
:10093A005CC0E1FF5DC0E2FFC80EE66E06D05CC097
:10094A00E1FF5DC0E2FF880EE66E19D0010E5C245D
:10095A00E16E000E5D20E26E080EE66E020E5C2469
:10096A00E16E000E5D20E26E200EE66E020EE66E6D
:10097A005CC0E1FF5DC0E2FF840EE66E609F12007C
:10098A00160E616E9F0E0F015B6F3B0E606E1200BA
:10099A00649835BE4AD0000160AF28D0020E2D6E91
:1009AA00010E4424E16E000E4520E26EE66A44C060
:1009BA00E1FF45C0E2FFC80EE66E010E5C24E16E5F
:1009CA00000E5D20E26E080EE66E020E5C24E16EF9
:1009DA00000E5D20E26E280EE66E020EE66E5CC028
:1009EA00E1FF5DC0E2FFC80EE66E1ED0010E5C2478
:1009FA00E16E000E5D20E26E080EE66E020E5C24C9
:100A0A00E16E000E5D20E26E200EE66E020EE66ECC
:100A1A005CC0E1FF5DC0E2FF8C0EE66E44C0E1FF00
:100A2A0045C0E2FF840EE66E7FD0000160BF7CD035
:100A3A00020120AF52D03750275D02E13650265DC1
:100A4A0004E226C236F027C237F0DCDD010E2D6E35
:100A5A00010E5C24E16E000E5D20E26E080EE66E69
:100A6A00020E5C24E16E000E5D20E26E200EE66E40
:100A7A00020EE66E5CC0E1FF5DC0E2FF800EE66E2C
:100A8A0000016B6B010E6725E16E000E6821E26EB4
:100A9A00080EE66E020E6725E16E000E6821E26E10
:100AAA00200EE66E020EE66E67C0E1FF68C0E2FF46
:100ABA00840EE66E010E6B6F020E4424E16E000E88
:100ACA004520E26E280EE66E020EE66E44C0E1FF95
:100ADA0045C0E2FFC80EE66E27D0020E2D6E010E4B
:100AEA004424E16E000E4520E26EE66A44C0E1FF4E
:100AFA0045C0E2FFC80EE66E010E5C24E16E000EF0
:100B0A005D20E26E080EE66E020E5C24E16E000EB7
:100B1A005D20E26E280EE66E020EE66E5CC0E1FF14
:0A0B2A005DC0E2FFC80EE66E120087
:100B3400040E4418006E00C044F02F50080A0BE164
:100B440022C25CFF0F015C51000803E2100E2F6EFD
:100B540002D0040E2F6E2D50010A3AE1020E4424F5
:100B6400E16E000E4520E26E280EE66E020EE66E81
:100B74004CDD2E50020A07E144C0E1FF45C0E2FF0C
:100B8400840EE66E24D0040E4418006E00C044F0B7
:100B940044C0E9FF45C0EAFFEECF00F000BC0CD032
:100BA400040E4418006E00C044F044C0E1FF45C088
:100BB400E2FFC80EE66E0BD0040E4418006E00C0AF
:100BC40044F044C0E1FF45C0E2FF880EE66E01D068
:040BD40022DE12000B
:100BD8002D50020A02E14DDE1ED01BDE6B51000AC9
:100BE80019E1010E5C24E16E000E5D20E26E080E34
:100BF800E66E020E5C24E16E000E5D20E26E200EB1
:100C0800E66E020EE66E5CC0E1FF5DC0E2FF8C0E90
:080C1800E66E01D06B6B1200C7
:100C20000FDE2B6A2C6A526A536A0F015F6B626A8D
:100C3000ACDE648C5C6B546B649C576A586A000E23
:100C4000585C02E1080E575C17E257C000F058C02C
:100C500001F0003600900136003600900136000E9B
:100C60000024E16E020E0120E26EE66AE66AE66AA0
:100C7000E66A574A582AE3D7160E536F62A603D086
:100C8000F70E6216FBD7356A0001606B616B626B11
:100C90006498080E446E020E456E296A2F6A12008F
:100CA0000F0153A119D067C0E9FF68C0EAFFEECF7A
:100CB00001F00150800A0FE144C0E9FF45C0EAFF9E
:100CC000EECF01F00150840A06E167C0E1FF68C081
:0E0CD000E2FF8C0EE66E5391DF0E62161200EC
:0A0CDE006084EF0E621664821200BB
:040CE800A1941200C1
:100CEC0044C0E9FF45C0EAFFEECF00F000AE05D0EE
:100CFC0044C0E1FF45C0E2FFE66A2E6A2D6A366AFF
:0C0D0C00376A356A1BDDAFDD42DE1200E5
:100D18006492609462A403D0FB0E6216FBD71200A3
:100D280000017B51000A12E07AC000F0000E016E4B
:100D3800003600900136440E0024E96E000E0120B2
:100D4800EA6EEECF04F0EECF05F011D07AC000F0D5
:100D5800000E016E003600900136480E0024E96E40
:100D6800000E0120EA6EEECF04F0EECF05F0020E81
:100D78000424E16E000E0520E26E7CC0E6FF7DC013
:100D8800E6FF010E0424E16E000E0520E26E7EC02F
:100D9800E6FF04C0E9FF05C0EAFFEECF00F004C09B
:100DA800E1FF05C0E2FF400E0014E66E04C0E9FF53
:100DB80005C0EAFFEECF00F004C0E1FF05C0E2FF86
:100DC800880E0010E66E7B51000A1BE07AC000F026
:100DD800000E016E003600900136440E0024026EAB
:100DE800000E0120036E02C0E9FF03C0EAFF040EF3
:100DF800EE18006E02C0E1FF03C0E2FF00C0E6FF8C
:100E08001AD07AC000F0000E016E0036009001364C
:100E1800480E0024026E000E0120036E02C0E9FF96
:100E280003C0EAFF040EEE18006E02C0E1FF03C023
:100E3800E2FF00C0E6FF04C000F005C001F01200A8
:100E48002F50000A09E1646A606A9BDD64B602D02B
:100E58006486FCD7010E2F6E2F50010A08E164BA90
:100E680006D0626A606A60806088020E2F6E62A493
:100E780005D060A403D0FB0E62164ADF64A202D03C
:100E88002FDFD7D062A018D060A016D0C5DE040E20
:100E98002F6E200E0201026F020E036F080E016F03
:100EA800000E0015006E00C000F28C0E0011006EDE
:100EB80000C000F2FE0E621662A805D060A803D03A
:100EC8000ADFEF0E621662AC04D060AC02D0BF0E2F
:100ED800621662AA03D060AA01D0DEDE62A204D044
:100EE80060A202D00F015F6B040E2F5C02E2F8DEF5
:100EF800A0D060A69DD000017B6B040E7B5DD8B0AE
:100F080097D062A691D063CF56F0F70E6216780E8E
:100F18005614016E0150000AD8A485D0FD0E56144F
:100F2800016E026AFF0E0216000E021802E1000EA0
:100F380001186BE17E0E5614016E01C003F00332F6
:100F4800039E03C000F0000E016E003600900136CB
:100F5800003600900136000E0024026E020E0120B9
:100F6800036E02C067F003C068F002C05CF003C003
:100F78005DF0040E5C18006E00C05CF002C0E9FF72
:100F880003C0EAFFEECF00F000C001F03C0E0116EE
:100F98000132019E0132019E01500D0A34E1020E18
:100FA8006725E96E000E6821EA6EEECF01F0EECFFC
:100FB80002F00250020A02E1280E011822E1020E94
:100FC8006725E16E000E6821E26E200EE66E020EC5
:100FD800E66E7A6B080E7A5D14E2200EE16E020E60
:100FE800E26E7A51E126D8B0E22A280EE96E020EA6
:100FF800EA6E7A51E926D8B0EA2AEECFE6FF7A2BD4
:10100800E9D770DE01D0E4DD0DD0FD0E5614016E77
:10101800026AFF0E0216000E021802E1040E011801
:1010280001E184DD00D001D003D000017B2B65D71E
:0410380057DE12006D
:10103C00060E006E170E016E000E026E0E0E0024D0
:10104C00F66E000E0120F76E000E0220F86E0900FD
:10105C00F5CF03F003C004F00F0E0024F66E000E63
:10106C000120F76E000E0220F86E0900F5CF01F09A
:10107C000150035C12E2060E006E170E016E000E9C
:10108C00026E0F0E0024F66E000E0120F76E000E9D
:10109C000220F86E0900F5CF04F0060E006E170E54
:1010AC00016E000E026E100E0024F66E000E012072
:1010BC00F76E000E0220F86E0900F5CF01F001501A
:1010CC00045C12E2060E006E170E016E000E026E2C
:1010DC00100E0024F66E000E0120F76E000E02209A
:0E10EC00F86E0900F5CF04F004C000F0120009
:1010FA00000E00017B1902E1000E7A1902E1016A71
:10110A000AD07AC0E9FF7BC0EAFFEECF00F0000EFA
:0C111A0000BE010E016E01C000F01200CA
:0A112600D08EA284A084F28E120085
:1011300000017D6B7E6B7F6B020E7A25F66E000ED2
:101140007B21F76E000E7C21F86E0900F5CF05F0CB
:10115000030E7A25F66E000E7B21F76E000E7C21C1
:10116000F86E0900F5CF00F000C003F0000E046E29
:1011700003C001F0006A05500024066E000E012035
:10118000076E7AC008F07BC009F07CC00AF0010E3F
:101190000824F66E000E0920F76E000E0A20F86E85
:1011A0000900F5CF01F00150020A1BE1060E0824E8
:1011B000F66E000E0920F76E000E0A20F86E090088
:1011C000F5CF01F001507D5D0CE2060E0824F66EAD
:1011D000000E0920F76E000E0A20F86E0900F5CF08
:1011E0007DF0010E0824F66E000E0920F76E000E49
:1011F0000A20F86E0900F5CF01F00150040A1BE146
:10120000080E0824F66E000E0920F76E000E0A2064
:10121000F86E0900F5CF01F001507D5D0CE2080E7B
:101220000824F66E000E0920F76E000E0A20F86EF4
:101230000900F5CF7DF008C0F6FF09C0F7FF0AC02E
:10124000F8FF0900F5CF00F000507E25016E000E7A
:101250007F21026E01C07EF002C07FF00750025C69
:1012600002E10650015C01E30FD008C0F6FF09C09F
:10127000F7FF0AC0F8FF0900F5CF00F0005008267C
:0E128000000E09220A2283D77DC000F0120062
:10128E00200E2F5C03E364B201D002D0006A46D078
:10129E0052C07AF053C07BF029DF00523EE177C096
:1012AE007AF0010E7B6F74C07CF075C07DF076C055
:1012BE007EF033DD00C052F001C053F04E6A4F6A2B
:1012CE00506A516A52C07AF053C07BF00FDF005261
:1012DE000EE0010E016E0150000A01E1AEDD4E502E
:1012EE004F105010511002E0006A18D0EBD752C0C8
:1012FE0078F053C079F0000E531802E1000E521828
:10130E000AE0010E00017825E96E000E7921EA6EE1
:0E131E00EECF00F003D0006A01D0006A12008A
:10132C0087DE00C074F0A00E00017A6F160E7B6F82
:10133C00000E7C6FF7DE00C075F07451005C03E2A8
:0C134C0074C000F002D075C000F0120068
:101358002F50000A0BE1646A606AC5EC04F0DFDE16
:0E13680064B602D06486FCD7010E2F6E120010
:10137600DADF00C04DF0010E5B6E70C030F071C058
:1013860031F072C059F073C05AF047DC010E016E9D
:0A1396000150010A01E1DDDF120041
:1013A00070C074F071C075F072C076F0010E00016B
:0613B000776F6DDF1200F3
:1013B6000F0EC112FF0E936E816A800E0001706FD0
:1013C600020E716F880E726F020E736FD1DF1200FC
:1013D6002F50010A07E164BA05D0626A608060880E
:1013E600020E2F6E62A405D060A403D0FB0E621617
:1013F60090DC64A202D075DCDBD062A018D060A0BD
:1014060016D00BDC040E2F6E200E0201026F020EA8
:10141600036F080E016F000E0015006E00C000F28B
:101426008C0E0011006E00C000F2FE0E621662A85D
:1014360005D060A803D050DCEF0E621662AC04D073
:1014460060AC02D0BF0E621662AA03D060AA01D0B9
:1014560024DC62A204D060A202D00F015F6B040EEE
:101466002F5C02E23EDCA4D060A6A0D00001816B16
:10147600040E815DD8B09AD062A694D063CF56F0A0
:10148600F70E6216780E5614016E0150000AD8A4A3
:1014960088D0FD0E5614016E026AFF0E0216000E6B
:1014A600021802E1000E01186DE17E0E5614016E5F
:1014B60001C003F00332039E03C000F0000E016E6C
:1014C600003600900136003600900136000E0024EA
:1014D600026E020E0120036E02C067F003C068F0C0
:1014E60002C05CF003C05DF0040E5C18006E00C024
:1014F6005CF002C0E9FF03C0EAFFEECF00F000C0D7
:1015060001F03C0E01160132019E0132019E01508E
:101516000D0A35E1020E6725E96E000E6821EA6EB6
:10152600EECF01F0EECF02F00250020A02E1280EE1
:10153600011822E1020E6725E16E000E6821E26EB7
:10154600200EE66E020EE66E806B080E805D14E2DB
:10155600200EE16E020EE26E8051E126D8B0E22A3C
:10156600280EE96E020EEA6E8051E926D8B0EA2A04
:10157600EECFE6FF802BE9D776EC06F002D0ECEC56
:1015860005F00ED0FD0E5614016E026AFF0E02160D
:10159600000E021802E1040E011802E19AEC05F0B1
:1015A60000D001D003D00001812B62D774EC06F085
:0215B600120021
:1015B8000900F5CFE6FF0006FBE10106F9E112009C
:1015C80000016D516F1902E16E516C1938E081A864
:1015D80036D0020E0201886F010E896F8A6B8B6B01
:1015E800880E0001706F020E716F040E726FD4DEE8
:1015F800005201E1F5D7080E0B6E9D0E0C6E050E1C
:101608000D6E0D2EFED70C2EFCD70B2EFAD7000030
:101618000000020E0201886F896B8A6B8B6B880E43
:101628000001706F020E716F040E726FB5DE00520A
:1016380001E1F5D76EC06CF06FC06DF009D081B8CC
:1016480007D000016C6B6D6B010E6E6F000E6F6F33
:0216580012007E
:10165A00ADDEB5DF140E0C6E790E0D6E0D2EFED7B3
:0C166A000C2EFCD700000000F4D7FFD7C6
:101676002A0345006E006100620069006C00690083
:1016860074007900200046006F0075006E0064004B
:0A1696006100740069006F006E002F
:1016A0000902290001010080FA0904000002030078
:1016B00000000921010100012221000705810340EA
:0916C000000107050103400001CF
:1016C9000600FF0901A10119012940150026FF00A3
:1016D9007508950881021901294075089508910234
:0116E900C040
:1016EA001C03460069006E00670065007200200056
:0C16FA0053007700690074006300680072
:101706001201000200000008140301220100010278
:021716000001D0
:0417180004030904B9
:020000040030CA
:0E0000000032181EFF0881FF03C003E003401A
:00000001FF
